:1000000012C02CC02BC02AC029C028C027C026C0BF
:1000100025C024C023C022C021C020C02EC11EC0C4
:100020001DC01CC01BC011241FBECFE5D4E0DEBF25
:10003000CDBF10E0A0E6B0E0EEEAF6E102C0059028
:100040000D92A63AB107D9F710E0A6EAB0E001C0D8
:100050001D92A63EB107E1F732D227CBD1CF0F9345
:100060001F93CF93DF93182F492F24E630E000E051
:10007000C0E0D0E0812F942FB901A2DA662339F4D1
:10008000002329F4FE01EF51FF4F10820AC0FE0148
:10009000EF51FF4FA62FB0E0A05ABF4F8C91808345
:1000A00001E02196C330D10561F0812F942FB90171
:1000B00087DA182F492FC9016AE070E081DA9B01C5
:1000C000D9CFDF91CF911F910F9108958091D000EA
:1000D000873029F41092B7001092B60010C08091BA
:1000E000B6009091B70001969093B7008093B60048
:1000F000893C910520F082E08093B00008958DE660
:100100008093E10087E78093E2001092E300089576
:100110008091D000873021F48FE08093B50006C035
:100120008770823019F41092B00008958091B50064
:100130008930BCF0209194003091950040E050E06F
:100140006DE979E787E190E04EDADA01C90187DFEE
:100150008091E20080688093E20088EF8093B50090
:100160000895982F9F5F9093B5008091A7008823F2
:1001700041F4191634F41092E1001092E20010924A
:10018000E30008958091D000873031F48091C10060
:10019000853008F442C019C0282F30E0C9018770AB
:1001A00090700297D1F5C901807E907080349105DE
:1001B00031F080389105B1F0809779F509C08091D0
:1001C000C100843010F48F5F08C01092C10025C0B8
:1001D0008091C100882321F081508093C1001DC00F
:1001E00084E0FBCF8091C100823061F0833018F44D
:1001F000813081F405C0833039F0843059F406C071
:1002000083E005C084E003C085E001C086E0809300
:10021000B00008951092B00008951092E10010927D
:10022000E2001092E3008091C100823099F08330A7
:1002300028F4882341F08130F9F407C0833079F045
:100240008430D1F413C080E50BC086E78093E100D1
:1002500080E109C088E38093E1008CE504C08EE56D
:100260008093E10089E78093E200089581E780931D
:10027000E10080E18093E20008951F920F920FB693
:100280000F921124BF92CF92DF92EF92FF920F93C1
:100290001F932F933F934F935F936F937F938F930E
:1002A0009F93AF93BF93CF93DF93EF93FF9304B1EB
:1002B00015B19801442737FD4095542FCA01B90163
:1002C0004CD96B017C018091C4009091C500A09134
:1002D000C600B091C700C80ED91EEA1EFB1EC09210
:1002E000C400D092C500E092C600F092C700B09062
:1002F000A600CB2DD0E0FE01EE0FFF1FE059FF4F0F
:1003000011830083FE01EE0FFF1FE058FF4F1183A2
:100310000083369A6091B8007091B9006338710516
:100320000CF48BC0FE01EE0FFF1FEE58FF4F408113
:100330005181400F511FDE01AA0FBB1FA458BF4FB0
:10034000FE01EE0FFF1FEA58FF4F2D913C91808177
:100350009181280F391FC901880F991F820F931FA0
:10036000480F591FDE01AA0FBB1FA258BF4FFE0145
:10037000EE0FFF1FEC58FF4F8D919C912081318132
:10038000820F931F880F991F480F591FCC0FDD1F35
:10039000FE01E858FF4FC658DF4F888199812081C0
:1003A0003181820F931F880F991F880F991F480F63
:1003B000591F8091AD009091AE004817590758F031
:1003C00083E0643878073CF45093AE004093AD006E
:1003D0008FEF9FEF2EC080916E0090916F004817B5
:1003E000590748F483E0643878072CF450936F0081
:1003F00040936E0022C0C092CC00D092CD00E0921B
:10040000CE00F092CF007093C3006093C2001092B0
:10041000C4001092C5001092C6001092C7008FEF62
:100420009FEF9093B9008093B8001092AE001092A5
:10043000AD0090936F0080936E008091B800909112
:10044000B90001969093B9008093B800B39487E007
:10045000B822B092A60018BA85B3837E85BB2091DE
:10046000D300A22FB0E0FD01EF51FF4F808188BB88
:1004700085B3A559BF4F9C91892B85BB2F5F2093D6
:10048000D300233010F01092D300FF91EF91DF9151
:10049000CF91BF91AF919F918F917F916F915F911C
:1004A0004F913F912F911F910F91FF90EF90DF900F
:1004B000CF90BF900F900FBE0F901F9018952F9266
:1004C0003F924F925F926F927F928F929F92AF92E4
:1004D000BF92CF92DF92EF92FF920F931F93CF9331
:1004E000DF9318BA8FEF87BB15BA8CE384BB84EE19
:1004F00082BB8BE181BB13BE12BE1FBC1EBC1DBCE8
:100500001CBC17BC16BC1BBC1ABC19BC18BC12BC4A
:1005100015BC14BC13BC15BE19BE80E888B910BE4A
:1005200080EC87B98EEE86B980E090E099D8909300
:10053000BB008093BA008091BA009091BB008F5F9E
:100540009F4F31F485EF90E09093BB008093BA0009
:100550006091BA007091BB00E090BA00F090BB00CF
:1005600080E090E0B2D65B016C0100E010E0C801D1
:10057000B701ABD69B01AC01C601B50134D720E071
:1005800030E040E85DE32FD720E030E040E85DE375
:100590002AD76FD67093E0006093DF008EE090E082
:1005A0005FD89093D2008093D1008091D100909138
:1005B000D2008F5F9F4F31F480EA90E09093D20099
:1005C0008093D1006091D1007091D200E090D10071
:1005D000F090D20080E090E078D65B016C0100E002
:1005E00010E0C801B70171D69B01AC01C601B5018D
:1005F000FAD620E030E040E85DE3F5D620E030E0D8
:1006000040E85DE3F0D635D67093D8006093D7000C
:1006100080E190E025D89093DA008093D900809112
:10062000D9009091DA008F5F9F4F31F484E690E01B
:100630009093DA008093D90082E190E011D89093F2
:10064000E5008093E4008091E4009091E5008F5FE5
:100650009F4F31F482E390E09093E5008093E400B3
:1006600082E090E0FDD7A0E0B0E0BC01CD012DD646
:100670009B01AC01B8D620E030E040E85DE3B3D6A2
:1006800020E030E040E85DE3AED6F3D57093C000E3
:100690006093BF008091BF009091C0008F5F9F4F1B
:1006A00031F487ED90E09093C0008093BF0084E028
:1006B00090E0D6D7A0E0B0E0BC01CD0106D69B010A
:1006C000AC0191D620E030E040E85DE38CD620E03C
:1006D00030E040E85DE387D6CCD57093CB006093E3
:1006E000CA008091CA009091CB008F5F9F4F31F478
:1006F0008BEC90E09093CB008093CA0086E090E072
:10070000AFD7A0E0B0E0BC01CD01DFD59B01AC01CB
:100710006AD620E030E040E85DE365D620E030E0D6
:1007200040E85DE360D6A5D57093D6006093D50010
:100730008091D5009091D6008F5F9F4F31F48CEA65
:1007400090E09093D6008093D50088E090E088D721
:10075000A0E0B0E0BC01CD01B8D59B01AC0143D60F
:1007600020E030E040E85DE33ED620E030E040E8C5
:100770005DE339D67ED57093DC006093DB00809119
:10078000DB009091DC008F5F9F4F31F48CE990E0AB
:100790009093DC008093DB008AE090E061D7A0E0DA
:1007A000B0E0BC01CD0191D59B01AC011CD620E08D
:1007B00030E040E85DE317D620E030E040E85DE35C
:1007C00012D657D57093BD006093BC008091BC00D9
:1007D0009091BD008F5F9F4F31F48DE890E0909332
:1007E000BD008093BC008CE090E03AD7A0E0B0E080
:1007F000BC01CD016AD59B01AC01F5D520E030E00C
:1008000040E85DE3F0D520E030E040E85DE3EBD583
:1008100030D57093DE006093DD008091DD00909113
:10082000DE008F5F9F4F31F48EE790E09093DE0003
:100830008093DD007894A7E04A2E33243A94F6E4BE
:100840002F2EECE99E2E73E0872E7724739464E0BC
:10085000662E52E0552E8091C2009091C300892BE4
:10086000D1F3F8946091CC007091CD008091CE00CE
:100870009091CF00C091C200D091C3001092C300EC
:100880001092C200789420E031E040E050E0ABD616
:1008900059016A019E01442737FD4095542FC60136
:1008A000B501A1D6B9013093C9002093C8002091A9
:1008B000A8003091A9008091D9009091DA00281702
:1008C000390750F48091A8009091A9000196909367
:1008D000A9008093A8000FC18091A7008230E1F0A9
:1008E000833020F4813009F090C006C0833091F14C
:1008F000843009F08AC05AC08091DF009091E000F6
:100900008617970708F46FC08091CA009091CB00BA
:100910006817790730F176C08091BF009091C000D0
:100920008617970778F48091B1008F5F8093B100AC
:100930002091E4003091E50090E08217930708F0E1
:10094000A3C0D9C08091DB009091DC0068177907C3
:10095000A0F158C08091D5009091D60086179707D6
:1009600078F48091B1008F5F8093B1002091E40012
:100970003091E50090E08217930708F08BC0BBC070
:100980008091DD009091DE0068177907D8F580919D
:10099000B1008F5F8093B1002091E4003091E500B9
:1009A00090E08217930708F082C0A5C08091BC0038
:1009B0009091BD008617970778F48091B1008F5F02
:1009C0008093B1002091E4003091E50090E082171F
:1009D000930708F066C08FC08091D7009091D8002F
:1009E0006817790778F48091B1008F5F8093B10028
:1009F0002091E4003091E50090E08217930708F021
:100A00005CC079C01092B10076C08091BF00909117
:100A1000C0008617970740F48091DF009091E000B6
:100A200005976817790780F18091DB009091DC00D1
:100A30008617970738F48091BF009091C00068171F
:100A4000790740F18091DB009091DC00681779070D
:100A500038F48091DD009091DE008617970708F149
:100A60008091DD009091DE006817790740F4809155
:100A7000D7009091D800059686179707C0F010927E
:100A8000A9001092A80037C0909A919893987092FC
:100A9000A70005C09098919893985092A700AD9A9E
:100AA00016C09098919A93988092A700F8CF90984A
:100AB000919A939A6092A700F2CF1092A900109297
:100AC000A8001092A700AD9890989198939880E014
:100AD00090E0FBD3EFD420E030E040E851E483D451
:100AE000C8D3DC01CB01BBDA8091E300806880933E
:100AF000E3009092B5006091900070919100809118
:100B00009200909193007B018C010894E108F10818
:100B100001091109EA0CFB1C0C1D1D1D20E130E030
:100B200040E050E060D5E21AF30A040B150BE092A6
:100B30009000F092910000939200109393008091A6
:100B4000940090919500C80FD91F44E09695879521
:100B50004A95E1F7C81BD90BD0939500C093940038
:100B60008091D400882309F057C050B35095507E2F
:100B7000E9F49091B300992309F44EC02091BE008E
:100B8000233068F08091B4008F5F8093B40086308A
:100B900008F442C02F3F19F095609093D400109252
:100BA000BE001092B3001092B40036C01092B40090
:100BB0006091BE006F3F81F14091B300252F30E07E
:100BC000842F90E08095909528233923232B71F072
:100BD000252F242B2093B300662311F42F5F03C02D
:100BE0006734D0F023602093D40016C0623011F433
:100BF000426003C0663421F443604093D40007C0D0
:100C0000603529F444604093D4002092BE00809166
:100C1000BE008F5F8093BE00E091B0008091B20073
:100C2000E81759F04092D000E093B2008091BE00E6
:100C3000882349F03092BE0006C08091D400809392
:100C4000D0001092D400F0E0EE0FFF1FEA56FF4FE5
:100C50000190F081E02D0995FECDEF92FF920F9368
:100C60001F938091D000873021F48FE08093B500EE
:100C700014C0282F30E0C90187709070029769F482
:100C8000207E30702038310511F481E003C01092CD
:100C9000C10082E08093B00039C08091B5008930F6
:100CA0002CF1609190007091910080919200909150
:100CB00093000DD37B018C0160919400709195009D
:100CC00080E090E002D39B01AC01C801B70164D27F
:100CD000F1D320E030E040E851E485D3C5D2DC0117
:100CE000CB01BDD988EF8093B50010C0982F9F5FCE
:100CF0009093B5008091A700882341F4191634F42D
:100D00001092E1001092E2001092E3001F910F9107
:100D1000FF90EF9008958091D000873061F480912A
:100D2000E4009091E5009093B7008093B60080E1D5
:100D30008093B5004AC090E0AC01407E50709C01A9
:100D40002770307040385105F9F42330310521F017
:100D50002530310509F048C08091B6009091B70068
:100D60009093E5008093E4002330310549F46091CD
:100D7000E4007091E50082E190E077D487E001C063
:100D800082E08093B00008952230310519F02430BC
:100D90003105D9F44034510551F48091B600909159
:100DA000B70023E0873E920780F401960AC04032E4
:100DB000510559F48091B6009091B700009729F041
:100DC00001979093B7008093B6008091B50087FD9E
:100DD00008C08091B6009091B70041D91092B5003B
:100DE00008958F5F8093B50008958091D00087307B
:100DF00079F48091D9009091DA0062E370E0CCD36D
:100E00007093B7006093B60080E18093B5006DC029
:100E100090E09C01207E3070AC014770507020380B
:100E2000310549F54330510521F04530510509F0B0
:100E30006BC08091B6009091B70022E330E0BC0116
:100E4000629FC001639F900D729F900D112490933B
:100E5000DA008093D9004330510549F46091D900FC
:100E60007091DA0080E190E000D487E001C082E078
:100E70008093B000089542305105C1F4203431050B
:100E800051F48091B6009091B70072E080389707D6
:100E900060F5019626C02032310539F58091B60003
:100EA0009091B700009709F101971BC0443051059C
:100EB000E1F42034310551F48091B6009091B700EF
:100EC00022E08038920788F40A960BC02032310560
:100ED00061F48091B6009091B7008B30910528F0B5
:100EE0000A979093B7008093B6008091B50087FD74
:100EF00008C08091B6009091B700B1D81092B500AB
:100F000008958F5F8093B5000895AF92BF92CF92FE
:100F1000DF92EF92FF920F931F93CF93DF93809115
:100F2000D000873061F48091D1009091D2009093ED
:100F3000B7008093B60080E18093B5006FC090E069
:100F40009C01207E3070EC01C770D07020383105D4
:100F500009F044C0C330D10521F0C530D10509F0F6
:100F60006CC08091B6009091B7009093D2008093AE
:100F7000D1006091D1007091D200E090D100F0904A
:100F8000D20080E090E0A1D15B016C0100E010E0B4
:100F9000C801B7019AD19B01AC01C601B50123D2AA
:100FA00020E030E040E85DE31ED220E030E040E8A1
:100FB0005DE319D25ED17093D8006093D700239778
:100FC00049F46091D1007091D2008EE090E04DD351
:100FD00087E001C082E08093B0002FC0C230D1050D
:100FE00011F02497D9F42034310549F48091B600EA
:100FF0009091B700833B910588F401960BC0203295
:10100000310561F48091B6009091B7008536910565
:1010100028F001979093B7008093B6008091B500B7
:1010200087FD08C08091B6009091B70018D8109243
:10103000B50003C08F5F8093B500DF91CF911F9102
:101040000F91FF90EF90DF90CF90BF90AF900895F9
:10105000AF92BF92CF92DF92EF92FF920F931F93C6
:10106000CF93DF938091D000873061F48091BA00F4
:101070009091BB009093B7008093B60080E180937D
:10108000B50070C090E09C01207E3070EC01C7700C
:10109000D0702038310509F044C0C330D10521F0AB
:1010A000C530D10509F06DC08091B6009091B700B0
:1010B0009093BB008093BA006091BA007091BB001E
:1010C000E090BA00F090BB0080E090E0FED05B01C1
:1010D0006C0100E010E0C801B701F7D09B01AC0142
:1010E000C601B50180D120E030E040E85DE37BD16E
:1010F00020E030E040E85DE376D1BBD07093E000C3
:101100006093DF00239749F46091BA007091BB00AF
:1011100080E090E0AAD287E001C082E08093B00036
:1011200030C0C230D10511F02497E1F420343105EC
:1011300051F48091B6009091B70021E0843F92076E
:1011400088F401960BC02032310561F48091B6001D
:101150009091B7008D3D910528F001979093B700CD
:101160008093B6008091B50087FD08C08091B600DD
:101170009091B70074D71092B50003C08F5F809331
:10118000B500DF91CF911F910F91FF90EF90DF900D
:10119000CF90BF90AF9008950CD0EBC0E3D040F05B
:1011A000DAD030F021F45F3F19F0CCC0511115C1F5
:1011B000CFC0F0D098F39923C9F35523B1F3951B11
:1011C000550BBB27AA2762177307840738F09F5F68
:1011D0005F4F220F331F441FAA1FA9F333D00E2ED7
:1011E0003AF0E0E830D091505040E695001CCAF744
:1011F00029D0FE2F27D0660F771F881FBB1F261709
:1012000037074807AB07B0E809F0BB0B802DBF01DB
:10121000FF2793585F4F2AF09E3F510568F092C018
:10122000DCC05F3FECF3983EDCF3869577956795DD
:10123000B795F7959F5FC9F7880F911D969587958C
:1012400097F90895E1E0660F771F881FBB1F6217AB
:1012500073078407BA0720F0621B730B840BBA0B69
:10126000EE1F88F7E095089504D06894B111B5C0D9
:10127000089598D088F09F5790F0B92F9927B751CB
:10128000A0F0D1F0660F771F881F991F1AF0BA954A
:10129000C9F712C0B13081F09FD0B1E008959CC071
:1012A000672F782F8827B85F39F0B93FCCF3869540
:1012B00077956795B395D9F73EF49095809570959D
:1012C00061957F4F8F4F9F4F0895E89409C097FB1A
:1012D0003EF490958095709561957F4F8F4F9F4F0D
:1012E0009923A9F0F92F96E9BB279395F695879551
:1012F00077956795B795F111F8CFFAF4BB0F11F414
:1013000060FF1BC06F5F7F4F8F4F9F4F16C08823BA
:1013100011F096E911C0772321F09EE8872F762FF0
:1013200005C0662371F096E8862F70E060E02AF031
:101330009A95660F771F881FDAF7880F969587951D
:1013400097F9089597F99F6780E870E060E0089545
:101350009FEF80EC089500240A94161617061806CD
:101360000906089500240A941216130614060506A9
:101370000895092E0394000C11F4882352F0BB0F3A
:1013800040F4BF2B11F460FF04C06F5F7F4F8F4F9D
:101390009F4F089557FD9058440F551F59F05F3FD8
:1013A00071F04795880F97FB991F61F09F3F79F087
:1013B00087950895121613061406551FF2CF469509
:1013C000F1DF08C0161617061806991FF1CF86958B
:1013D0007105610508940895E894BB27662777276F
:1013E000CB0197F908950BD0C4CFB5DF28F0BADF51
:1013F00018F0952309F0A6CFABCF1124EECFCADFAA
:10140000A0F3959FD1F3950F50E0551F629FF00117
:10141000729FBB27F00DB11D639FAA27F00DB11D70
:10142000AA1F649F6627B00DA11D661F829F2227F9
:10143000B00DA11D621F739FB00DA11D621F839F80
:10144000A00D611D221F749F3327A00D611D231F56
:10145000849F600D211D822F762F6A2F11249F57A4
:1014600050408AF0E1F088234AF0EE0FFF1FBB1FC7
:10147000661F771F881F91505040A9F79E3F510566
:1014800070F060CFAACF5F3FECF3983EDCF3869517
:1014900077956795B795F795E7959F5FC1F7FE2B11
:1014A000880F911D9695879597F9089511F40EF47C
:1014B0004FCF3EC077DFD0F39923D9F3CEF39F57B8
:1014C000550B87FF43D00024A0E640EA90018058E6
:1014D0005695979528F4805C660F771F881F20F03B
:1014E00026173707480730F4621B730B840B20293B
:1014F00031294A2BA69517940794202531254A2790
:1015000058F7660F771F881F20F026173707480700
:1015100030F4620B730B840B200D311D411DA0951F
:1015200081F7B901842F9158880F96958795089572
:101530009F3F31F0915020F4879577956795B79547
:10154000880F911D9695879597F908959150504071
:10155000660F771F881FD2F70895629FD001739F8F
:10156000F001829FE00DF11D649FE00DF11D929F3F
:10157000F00D839FF00D749FF00D659FF00D99277E
:10158000729FB00DE11DF91F639FB00DE11DF91FA2
:10159000BD01CF0111240895AA1BBB1B51E107C057
:1015A000AA1FBB1FA617B70710F0A61BB70B881FF3
:1015B000991F5A95A9F780959095BC01CD01089582
:1015C00097FB092E07260AD077FD04D0E5DF06D069
:1015D00000201AF4709561957F4F0895F6F7909565
:1015E00081959F4F089597FB092E05260ED057FD34
:1015F00004D014D00AD0001C38F450954095309592
:1016000021953F4F4F4F5F4F0895F6F79095809586
:10161000709561957F4F8F4F9F4F0895A1E21A2ECD
:10162000AA1BBB1BFD010DC0AA1FBB1FEE1FFF1F86
:10163000A217B307E407F50720F0A21BB30BE40BD6
:10164000F50B661F771F881F991F1A9469F760951D
:101650007095809590959B01AC01BD01CF010895D7
:10166000A8E1B0E042E050E005C012D0272F11C041
:10167000DC01CB01FC01E199FECF06C0FFBBEEBB54
:10168000E09A31960DB20D9241505040B8F708954E
:10169000262FE199FECF9FBB8EBB2DBB0FB6F894D2
:0E16A000E29AE19A0FBE01960895F894FFCFEA
:1016AE003F065B4F666D7D077F6F00040810FFFFDE
:1016BE0000040004000400040004000400040004FC
:1016CE0000040004000400040004000400040004EC
:1016DE00A0D90800800C2D068800C20028088507B6
:0616EE00F5068B06660004
:00000001FF
