:1000000012C02CC02BC02AC029C028C027C026C0BF
:1000100025C024C023C022C021C020C034C11EC0BE
:100020001DC01CC01BC011241FBECFE5D4E0DEBF25
:10003000CDBF10E0A0E6B0E0E8EBF4E102C005902F
:100040000D92A63AB107D9F710E0A6EAB0E001C0D8
:100050001D92A93DB107E1F738D22CCAD1CF9C013E
:10006000E199FECF3FBB2EBBE09A8DB308959C0172
:10007000E199FECF3FBB2EBB6DBB0FB6F894E29A61
:10008000E19A0FBE08950F931F93CF93DF93182F1C
:10009000492F24E630E000E0C0E0D0E0812F942F2B
:1000A000B901B8D9662339F4002329F4FE01EC52D2
:1000B000FF4F10820AC0FE01EC52FF4FA62FB0E0A6
:1000C000A05ABF4F8C91808301E02196C330D105A7
:1000D00061F0812F942FB9019DD9182F492FC901A3
:1000E0006AE070E097D99B01D9CFDF91CF911F9142
:1000F0000F9108958091C900873029F41092B600BD
:100100001092B50010C08091B5009091B600019694
:100110009093B6008093B500893C910520F082E071
:100120008093AF0008958DE68093D40087E7809395
:10013000D5001092D60008958091C900873021F42F
:1001400080E18093B40006C08770823019F4109269
:10015000AF00089520919400309195008091B400F3
:10016000803194F040E050E06DE979E787E190E07C
:1001700064D9DA01C90187DF8091D5008068809356
:10018000D5001092B40008958F5F8093B400089555
:100190008091C900873031F48091BC00853008F42B
:1001A00042C019C0282F30E0C901877090700297B3
:1001B000D1F5C901807E90708034910531F080388E
:1001C0009105B1F0809779F509C08091BC00843029
:1001D00010F48F5F08C01092BC0025C08091BC0055
:1001E000882321F081508093BC001DC084E0FBCFA8
:1001F0008091BC00823061F0833018F4813081F44A
:1002000005C0833039F0843059F406C083E005C05E
:1002100084E003C085E001C086E08093AF000895CC
:100220001092AF0008951092D4001092D500109251
:10023000D6008091BC00823099F0833028F4882366
:1002400041F08130F9F407C0833079F08430D1F483
:1002500013C080E50BC086E78093D40080E109C01D
:1002600088E38093D4008CE504C08EE58093D400AD
:1002700089E78093D500089581E78093D40080E1D9
:100280008093D50008951F920F920FB60F921124FC
:10029000BF92CF92DF92EF92FF920F931F932F9313
:1002A0003F934F935F936F937F938F939F93AF93FE
:1002B000BF93CF93DF93EF93FF9304B115B19801F0
:1002C000442737FD4095542FCA01B90170D86B01FE
:1002D0007C018091BF009091C000A091C100B091BD
:1002E000C200C80ED91EEA1EFB1EC092BF00D092EB
:1002F000C000E092C100F092C200B090A600CB2DE9
:10030000D0E0FE01EE0FFF1FE059FF4F1183008385
:10031000FE01EE0FFF1FE058FF4F11830083369A56
:100320006091B7007091B800633871050CF48BC010
:10033000FE01EE0FFF1FEE58FF4F40815181400F2D
:10034000511FDE01AA0FBB1FA458BF4FFE01EE0FC5
:10035000FF1FEA58FF4F2D913C9180819181280F1A
:10036000391FC901880F991F820F931F480F591F0A
:10037000DE01AA0FBB1FA258BF4FFE01EE0FFF1FE9
:10038000EC58FF4F8D919C9120813181820F931FFA
:10039000880F991F480F591FCC0FDD1FFE01E85829
:1003A000FF4FC658DF4F8881998120813181820FAC
:1003B000931F880F991F880F991F480F591F80910D
:1003C000AD009091AE004817590758F083E06438AB
:1003D00078073CF45093AE004093AD008FEF9FEF51
:1003E0002EC080916E0090916F004817590748F415
:1003F00083E0643878072CF450936F0040936E00CC
:1004000022C0C092C500D092C600E092C700F09210
:10041000C8007093BE006093BD001092BF001092A0
:10042000C0001092C1001092C2008FEF9FEF909316
:10043000B8008093B7001092AE001092AD00909378
:100440006F0080936E008091B7009091B800019684
:100450009093B8008093B700B39487E0B822B0922D
:10046000A60018BA85B3837E85BB2091CC00A22F4D
:10047000B0E0FD01EC52FF4F808188BB85B3A559E8
:10048000BF4F9C91892B85BB2F5F2093CC002330DD
:1004900010F01092CC00FF91EF91DF91CF91BF91BE
:1004A000AF919F918F917F916F915F914F913F910C
:1004B0002F911F910F91FF90EF90DF90CF90BF9001
:1004C0000F900FBE0F901F9018952F923F924F9252
:1004D0005F926F927F928F929F92AF92BF92CF92D4
:1004E000DF92EF92FF920F931F93CF93DF9318BA8F
:1004F0008FEF87BB15BA8CE384BB84EE82BB8BE1A4
:1005000081BB13BE12BE1FBC1EBC1DBC1CBC17BCD5
:1005100016BC1BBC1ABC19BC18BC12BC15BC14BC44
:1005200013BC15BE19BE80E888B910BE80EC87B92F
:100530008EEE86B96FE270E080E090E01ED5909379
:10054000BA008093B9008091B9009091BA008F5F92
:100550009F4F31F485EF90E09093BA008093B900FB
:100560006091B9007091BA00E090B900F090BA00C3
:1005700080E090E0C6D55B016C0100E010E0C801AE
:10058000B701BFD59B01AC01C601B50148D620E03B
:1005900030E040E85DE343D620E030E040E85DE352
:1005A0003ED683D57093D3006093D2006FE270E0A3
:1005B00082E090E0E2D49093CB008093CA008091D7
:1005C000CA009091CB008F5F9F4F31F480EA90E09A
:1005D0009093CB008093CA006091CA007091CB00C9
:1005E000E090CA00F090CB0080E090E08AD55B01FB
:1005F0006C0100E010E0C801B70183D59B01AC019C
:10060000C601B5010CD620E030E040E85DE307D636
:1006100020E030E040E85DE302D647D57093CF009C
:100620006093CE006FE270E084E090E0A6D49093F7
:10063000D1008093D0008091D0009091D1008F5F45
:100640009F4F31F484E690E09093D1008093D000E6
:100650006FE270E086E090E090D49093D8008093B1
:10066000D7008091D7009091D8008F5F9F4F31F4D1
:1006700082E390E09093D8008093D7007894A7E02D
:100680003A2E22242A94F6E49F2EECE98E2E73E073
:10069000772E6624639464E0562E52E0452E8091B6
:1006A000BD009091BE00892BD1F3F8946091C500F4
:1006B0007091C6008091C7009091C800C091BD00A4
:1006C000D091BE001092BE001092BD00789420E040
:1006D00031E040E050E0B1D659016A019E01442763
:1006E00037FD4095542FC601B501A7D6B901309307
:1006F000C4002093C3002091A8003091A9008091EC
:10070000D0009091D1002817390750F48091A800AB
:100710009091A90001969093A9008093A800DDC054
:100720008091A7008230C1F0833020F4813009F03D
:1007300078C006C0833031F1843009F072C046C001
:100740008091D2009091D3008617970708F4A7C034
:100750006B3C7105D0F062C0683D710578F0809106
:10076000B0008F5F8093B0002091D7003091D80007
:1007700090E08217930708F079C0AFC06C3971051B
:1007800040F14CC06D3A710578F08091B0008F5FF8
:100790008093B0002091D7003091D80090E082176C
:1007A000930708F069C099C06E377105B8F580915C
:1007B000B0008F5F8093B0002091D7003091D800B7
:1007C00090E08217930708F064C087C06E38710507
:1007D00078F08091B0008F5F8093B0002091D700B7
:1007E0003091D80090E08217930708F04CC075C094
:1007F0008091CE009091CF006817790778F48091AE
:10080000B0008F5F8093B0002091D7003091D80066
:1008100090E08217930708F042C05FC01092B000CA
:100820005CC0683D710540F08091D2009091D3008A
:100830000A9768177907D0F0CB018D599040CA9775
:10084000D8F0CB018F5790404D97E8F06E37710587
:1008500040F48091CE009091CF000A9686179707BA
:10086000C0F01092A9001092A80037C0909A9198F9
:1008700093986092A70005C09098919893984092A1
:10088000A700AD9A16C09098919A93987092A7007D
:10089000F8CF9098919A939A5092A700F2CF109225
:1008A000A9001092A8001092A700AD989098919876
:1008B000939880E090E025D419D520E030E040E81E
:1008C00051E4ADD4F2D3DC01CB01DDDB8091D60065
:1008D00080688093D6008092B400609190007091FF
:1008E000910080919200909193007B018C0108947B
:1008F000E108F10801091109EA0CFB1C0C1D1D1D82
:1009000020E130E040E050E098D5E21AF30A040B11
:10091000150BE0929000F0929100009392001093DA
:1009200093008091940090919500C80FD91F44E0E6
:10093000969587954A95E1F7C81BD90BD0939500FA
:10094000C09394008091CD00882309F057C050B324
:100950005095507EE9F49091B200992309F44EC06D
:100960002091BB00233068F08091B3008F5F8093AB
:10097000B300863008F442C02F3F19F09560909381
:10098000CD001092BB001092B2001092B30036C09E
:100990001092B3006091BB006F3F81F14091B200B3
:1009A000252F30E0842F90E08095909528233923DF
:1009B000232B71F0252F242B2093B200662311F4F2
:1009C0002F5F03C06734D0F023602093CD0016C0A2
:1009D000623011F4426003C0663421F443604093F6
:1009E000CD0007C0603529F444604093CD0090925B
:1009F000BB008091BB008F5F8093BB00E091AF0094
:100A00008091B100E81759F03092C900E093B1002D
:100A10008091BB00882349F02092BB0006C08091E2
:100A2000CD008093C9001092CD00F0E0EE0FFF1FC3
:100A3000EA56FF4F0190F081E02D099530CEEF92FC
:100A4000FF920F931F93CF93DF938091C90087305C
:100A500021F480E18093B40014C0282F30E0C90154
:100A600087709070029769F4207E307020383105CD
:100A700011F481E003C01092BC0082E08093AF00CB
:100A80002CC06091900070919100809192009091A3
:100A90009300C0919400D09195002091B400203132
:100AA000CCF031D37B018C01BE0180E090E029D3F2
:100AB0009B01AC01C801B7018BD218D420E030E013
:100AC00040E851E4ACD3ECD2DC01CB01DCDA10928B
:100AD000B40003C02F5F2093B400DF91CF911F912A
:100AE0000F91FF90EF9008958091C900873061F4D5
:100AF0008091D7009091D8009093B6008093B50074
:100B000080E18093B4004CC090E0AC01407E507016
:100B10009C01277030704038510509F523303105AC
:100B200021F02530310509F04AC08091B50090913F
:100B3000B6009093D8008093D7002330310559F444
:100B40006091D7007091D80047E350E086E090E0D4
:100B50002AD287E001C082E08093AF00089522305E
:100B6000310519F024303105D9F44034510551F4E0
:100B70008091B5009091B60023E0873E920780F403
:100B800001960AC04032510559F48091B500909108
:100B9000B600009729F001979093B6008093B500B6
:100BA0008091B40087FD08C08091B5009091B60097
:100BB0006ADA1092B40008958F5F8093B4000895AC
:100BC0008091C900873079F48091D0009091D10054
:100BD00062E370E00BD47093B6006093B50080E1DF
:100BE0008093B4006FC090E09C01207E3070AC0117
:100BF000477050702038310559F54330510521F0C8
:100C00004530510509F06DC08091B5009091B60056
:100C100022E330E0BC01629FC001639F900D729F90
:100C2000900D11249093D1008093D0004330510552
:100C300059F46091D0007091D10047E350E084E016
:100C400090E0B1D187E001C082E08093AF000895C9
:100C500042305105C1F42034310551F48091B50082
:100C60009091B60072E08038970760F5019626C033
:100C70002032310539F58091B5009091B60000978A
:100C800009F101971BC044305105E1F420343105CE
:100C900051F48091B5009091B60022E0803892071F
:100CA00088F40A960BC02032310561F48091B500BA
:100CB0009091B6008B30910528F00A979093B6007A
:100CC0008093B5008091B40087FD08C08091B50085
:100CD0009091B600D8D91092B40008958F5F809398
:100CE000B4000895AF92BF92CF92DF92EF92FF923D
:100CF0000F931F93CF93DF938091C900873061F4E6
:100D00008091CA009091CB009093B6008093B5007B
:100D100080E18093B40071C090E09C01207E30702F
:100D2000EC01C770D0702038310509F046C0C330DF
:100D3000D10521F0C530D10509F06EC08091B50014
:100D40009091B6009093CB008093CA006091CA0046
:100D50007091CB00E090CA00F090CB0080E090E072
:100D6000D0D15B016C0100E010E0C801B701C9D12E
:100D70009B01AC01C601B50152D220E030E040E851
:100D80005DE34DD220E030E040E85DE348D28DD114
:100D90007093CF006093CE00239759F46091CA00FE
:100DA0007091CB0047E350E082E090E0FCD087E018
:100DB00001C082E08093AF002FC0C230D10511F096
:100DC0002497D9F42034310549F48091B5009091ED
:100DD000B600833B910588F401960BC020323105A3
:100DE00061F48091B5009091B6008536910528F0A8
:100DF00001979093B6008093B5008091B40087FD71
:100E000008C08091B5009091B6003DD91092B40011
:100E100003C08F5F8093B400DF91CF911F910F913A
:100E2000FF90EF90DF90CF90BF90AF900895AF927A
:100E3000BF92CF92DF92EF92FF920F931F93CF93C7
:100E4000DF938091C900873061F48091B90090915F
:100E5000BA009093B6008093B50080E18093B4000F
:100E600072C090E09C01207E3070EC01C770D070A1
:100E70002038310509F046C0C330D10521F0C53016
:100E8000D10509F06FC08091B5009091B6009093A4
:100E9000BA008093B9006091B9007091BA00E090F7
:100EA000B900F090BA0080E090E02BD15B016C01BA
:100EB00000E010E0C801B70124D19B01AC01C601DC
:100EC000B501ADD120E030E040E85DE3A8D120E0FD
:100ED00030E040E85DE3A3D1E8D07093D3006093A5
:100EE000D200239759F46091B9007091BA0047E39A
:100EF00050E080E090E057D087E001C082E080932E
:100F0000AF0030C0C230D10511F02497E1F4203495
:100F1000310551F48091B5009091B60021E0843FF5
:100F2000920788F401960BC02032310561F480915C
:100F3000B5009091B6008D3D910528F001979093F2
:100F4000B6008093B5008091B40087FD08C0809101
:100F5000B5009091B60097D81092B40003C08F5F8F
:100F60008093B400DF91CF911F910F91FF90EF908C
:100F7000DF90CF90BF90AF900895DF92EF92FF92F5
:100F80000F931F937B018C01FB010995D82EC8019B
:100F90000196F7010995982F8D2D1F910F91FF90C4
:100FA000EF90DF900895DF92EF92FF920F931F93DF
:100FB000D72E7A018C01FA0109956D2DC801019691
:100FC000F70109951F910F91FF90EF90DF90089521
:100FD0000CD0EBC0E3D040F0DAD030F021F45F3F2A
:100FE00019F0CCC0511115C1CFC0F0D098F399239E
:100FF000C9F35523B1F3951B550BBB27AA276217DD
:101000007307840738F09F5F5F4F220F331F441F21
:10101000AA1FA9F333D00E2E3AF0E0E830D0915059
:101020005040E695001CCAF729D0FE2F27D0660F46
:10103000771F881FBB1F261737074807AB07B0E885
:1010400009F0BB0B802DBF01FF2793585F4F2AF09B
:101050009E3F510568F092C0DCC05F3FECF3983EC4
:10106000DCF3869577956795B795F7959F5FC9F7F8
:10107000880F911D9695879597F90895E1E0660F81
:10108000771F881FBB1F621773078407BA0720F0FA
:10109000621B730B840BBA0BEE1F88F7E095089563
:1010A00004D06894B111B5C0089598D088F09F57C6
:1010B00090F0B92F9927B751A0F0D1F0660F771FA4
:1010C000881F991F1AF0BA95C9F712C0B13081F084
:1010D0009FD0B1E008959CC0672F782F8827B85F14
:1010E00039F0B93FCCF3869577956795B395D9F7E5
:1010F0003EF490958095709561957F4F8F4F9F4FEF
:101100000895E89409C097FB3EF4909580957095FA
:1011100061957F4F8F4F9F4F9923A9F0F92F96E943
:10112000BB279395F695879577956795B795F111B8
:10113000F8CFFAF4BB0F11F460FF1BC06F5F7F4F55
:101140008F4F9F4F16C0882311F096E911C0772367
:1011500021F09EE8872F762F05C0662371F096E870
:10116000862F70E060E02AF09A95660F771F881F3F
:10117000DAF7880F9695879597F9089597F99F67FD
:1011800080E870E060E008959FEF80EC089500240F
:101190000A941616170618060906089500240A94DC
:1011A00012161306140605060895092E0394000C62
:1011B00011F4882352F0BB0F40F4BF2B11F460FFF1
:1011C00004C06F5F7F4F8F4F9F4F089557FD90581A
:1011D000440F551F59F05F3F71F04795880F97FBFB
:1011E000991F61F09F3F79F08795089512161306B5
:1011F0001406551FF2CF4695F1DF08C016161706E4
:101200001806991FF1CF8695710561050894089518
:10121000E894BB2766277727CB0197F908950BD071
:10122000C4CFB5DF28F0BADF18F0952309F0A6CFB8
:10123000ABCF1124EECFCADFA0F3959FD1F3950F6A
:1012400050E0551F629FF001729FBB27F00DB11D4A
:10125000639FAA27F00DB11DAA1F649F6627B00DDA
:10126000A11D661F829F2227B00DA11D621F739FC3
:10127000B00DA11D621F839FA00D611D221F749FD1
:101280003327A00D611D231F849F600D211D822F18
:10129000762F6A2F11249F5750408AF0E1F088235F
:1012A0004AF0EE0FFF1FBB1F661F771F881F91506C
:1012B0005040A9F79E3F510570F060CFAACF5F3F25
:1012C000ECF3983EDCF3869577956795B795F7959F
:1012D000E7959F5FC1F7FE2B880F911D9695879527
:1012E00097F9089511F40EF44FCF4AC077DFD0F389
:1012F0009923D9F3CEF39F57550B87FF51D05695BD
:101300009795B0E020F4660F771F881FBB1F1F93CF
:101310000F9300249001A0018001F001A0E80E0FBE
:101320001F1F0A1E511D601B710B8009B50B48F46D
:10133000600F711F801DB51F0E1B1F0B0A0A51097C
:1013400007C02E0F3F1F4A1F0E0F1F1F0A1E511DE1
:10135000660F771F881FBB1FA695F795E795F8F6D0
:101360000617170708065B07211D311D411D0F9148
:101370001F91B901842F9158880F969587950895EC
:101380009F3F49F0915028F4869577956795B795DA
:101390009F5F80389F4F880F9695879597F908959E
:1013A00091505040660F771F881FD2F70895629FB3
:1013B000D001739FF001829FE00DF11D649FE00D4D
:1013C000F11D929FF00D839FF00D749FF00D659FAE
:1013D000F00D9927729FB00DE11DF91F639FB00DAD
:1013E000E11DF91FBD01CF0111240895AA1BBB1BEC
:1013F00051E107C0AA1FBB1FA617B70710F0A61B15
:10140000B70B881F991F5A95A9F780959095BC0135
:10141000CD01089597FB092E07260AD077FD04D049
:10142000E5DF06D000201AF4709561957F4F08958E
:10143000F6F7909581959F4F089597FB092E052605
:101440000ED057FD04D014D00AD0001C38F45095AB
:101450004095309521953F4F4F4F5F4F0895F6F7D8
:1014600090958095709561957F4F8F4F9F4F089510
:10147000A1E21A2EAA1BBB1BFD010DC0AA1FBB1F98
:10148000EE1FFF1FA217B307E407F50720F0A21B0A
:10149000B30BE40BF50B661F771F881F991F1A9477
:1014A00069F760957095809590959B01AC01BD01A1
:0814B000CF010895F894FFCF6D
:1014B8003F065B4F666D7D077F6F00040810FFFFD6
:1014C80000040004000400040004000400040004F4
:1014D80000040004000400040004000400040004E4
:1014E800A0D90800800C1F059C00C80017077206C9
:0614F800E00574057A0016
:00000001FF
